:020000040800F2
:10000000D02E0020CD010008BF19000845180008B7
:10001000BD190008A9030008E71C00080000000043
:10002000000000000000000000000000C3190008EC
:10003000AB03000800000000C1190008C519000842
:10004000E7010008E7010008E7010008E7010008F0
:10005000E7010008E7010008E7010008E7010008E0
:10006000E7010008E7010008AD030008E701000808
:10007000E7010008E7010008E7010008E7010008C0
:10008000E7010008E7010008E7010008E7010008B0
:10009000E7010008E7010008E7010008E7010008A0
:1000A000E7010008E7010008E7010008E701000890
:1000B000E7010008451A0008E7010008E701000809
:1000C000E7010008E7010008E7010008E701000870
:1000D000E7010008E7010008E7010008E701000860
:1000E000E7010008E7010008E7010008E701000850
:1000F000E7010008E7010008E7010008E701000840
:10010000E7010008E7010008E7010008E70100082F
:10011000E7010008E7010008E7010008E70100081F
:10012000E7010008E7010008E7010008E70100080F
:1001300000F002F800F03AF80AA090E8000C8244BF
:100140008344AAF10107DA4501D100F02FF8AFF29C
:10015000090EBAE80F0013F0010F18BFFB1A43F0A5
:1001600001031847A81E0000C81E0000103A24BF53
:1001700078C878C1FAD8520724BF30C830C144BF0C
:1001800004680C607047000000230024002500264E
:10019000103A28BF78C1FBD8520728BF30C148BFEA
:1001A0000B6070471FB51FBD10B510BD00F058F8AB
:1001B0001146FFF7F7FF01F0DFFD00F076F803B41A
:1001C000FFF7F2FF03BC00F07DF80000094880470C
:1001D00009480047FEE7FEE7FEE7FEE7FEE7FEE729
:1001E000FEE7FEE7FEE7FEE704480549054A064B41
:1001F00070470000431A000831010008D028002091
:10020000D02E0020D02A0020D02A00204FF000025B
:1002100000B5134694469646203922BFA0E80C50FC
:10022000A0E80C50B1F12001BFF4F7AF090728BFD7
:10023000A0E80C5048BF0CC05DF804EB890028BF53
:1002400040F8042B08BF704748BF20F8022B11F07C
:10025000804F18BF00F8012B7047704770477047F8
:10026000754600F02BF8AE4605006946534620F06F
:100270000700854618B020B5FFF7B6FFBDE820405F
:100280004FF000064FF000074FF000084FF0000B52
:1002900021F00701AC46ACE8C009ACE8C009ACE805
:1002A000C009ACE8C0098D46704710B50446AFF3ED
:1002B00000802046BDE81040FFF781BF004870472E
:1002C0006C28002001491820ABBEFEE72600020082
:1002D0007047000070B5044600688168C943C907CB
:1002E00017D1816821F00101816000F0B5FB05465E
:1002F0000AE000BF00F0B0FB401B022804D92068D0
:100300008068C043C00706D020688068C043C0072B
:10031000F0D0002070BDA06A40F01000A062E06A3A
:1003200040F00100E062012070BD0000F8B5002639
:100330000446009600688168C943C9072DD08168CA
:1003400041F001018160164816490068B0FBF1F0E8
:1003500000E0401E00900028FBD100F07DFB054628
:1003600016E000BF00F078FB401B022810D920687F
:100370008068C043C0070BD0A06A40F01000A062A4
:10038000E06A40F00100E06284F824600120F8BDDA
:1003900020688068C043C007E4D10020F8BD000099
:1003A0001000002040420F00FEE77047102000F0D0
:1003B00045BA72B6FEE70000F8B50024009490F844
:1003C00024202546012A12D0012280F824204A68E0
:1003D0001F23072A0DD20668776B521E02EB82029A
:1003E00093409F430B6893401F43776319E00220BB
:1003F000F8BD06680D2A0AD2376BD21F02EB8202C3
:1004000093409F430B6893401F43376309E0F76AAB
:100410000D3A02EB820293409F430B6893401F43C7
:10042000F7620A68072306680A2A0AD3F7680A3AB5
:1004300002EB420293409F438B6893401F43F76057
:1004400008E0376902EB420293409F438B68934078
:100450001F4337610A68102A01D0112A20D1124B9C
:1004600002689A4217D193681B0219D4936843F427
:10047000000393600968102912D10C490C4A0968DD
:10048000B1FBF2F101EB8101490000E0491E00914E
:100490000029FBD104E0816A41F02001816201243E
:1004A00080F824502046F8BD0024014010000020B0
:1004B00040420F000068C06C704700002DE9F04119
:1004C00004004FF000057FD0A06A002628B9E6623C
:1004D00084F82460204600F081F82046FFF7FAFEF9
:1004E000A16AC90600D420B1A06A40F01000A06241
:1004F0006AE0A16A21F4885141F00201A162334906
:1005000023688B42E16904D1B1F5402F01D14FF44A
:100510000021277B4FF4807C41EA470261680A434F
:10052000A168614508D0012906D0002194F814E0A3
:10053000BEF1010F02D00AE06146F7E7C7B1A76A32
:1005400047F02007A762E76A47F00107E7625F68A4
:1005500027F469470F435F60236899681C4F39404F
:1005600011439960A16861450BD0012909D00CE0C5
:10057000DFF860E0A7690EEB47370F4347F40061EF
:10058000E5E7218A0D05A5F580152168CB6A23F4DE
:1005900070032B43CB62216889680F4B194091424D
:1005A00008D1E662A16A21F0020141F00101A162D5
:1005B000BDE8F081A06A20F0020040F01000A062C7
:1005C000E06A40F00100E0620120F1E7003C0140F8
:1005D000FDF7E1FF00E0FFFFFE0E1FFF00B585B055
:1005E0000021009101910291039100680E49884217
:1005F00018D10E48816941F400718161816901F46B
:1006000000710491816941F004018161806969464A
:1006100000F0040004901020009003200190044892
:1006200000F018F905B000BD0024014000100240A0
:10063000000801402DE9F84300270D4604460097C5
:1006400000F00AFA804620688168C90508D5A06ACA
:1006500040F02000A06284F824700120BDE8F883F7
:100660004168C90503D4C06A10F4700F2AD0022073
:1006700000F090FA3B490968B1FBF0F62068036985
:1006800039490B424FEA61014FEAA1121FD1C368F9
:100690004FEA611C13EA0C0F19D103690B4225D1F3
:1006A000C068104222D1142023E0681C0AD02DB16A
:1006B00000F0D2F9A0EB0800A84203D92068006836
:1006C000800725D5206800688007EED52DE00369F6
:1006D0000B4202D1C168114206D0026923490A4285
:1006E00006D1C068084203D1542002E0292000E06E
:1006F000FC204643009816E0681C11D02DB100F094
:10070000ABF9A0EB0800A8420AD90098B04207D282
:10071000A06A40F00400A06284F8247003209DE7E2
:100720000098401C0090B042E6D321686FF01200A0
:100730000860A06A40F40070A06220688068C0F37E
:10074000424007280CD1207B50B9A06A20F4807069
:10075000A062A06AC00403D4A06A40F00100A062B5
:1007600000207BE7100000202449922449922400B5
:1007700070B5044690F8240001280DD0012084F8BB
:1007800024002046FFF7D2FD02004FF0000005D004
:1007900084F82400104670BD022070BDA16A40F2AA
:1007A0000123994341F48071A1621F4D23681F49C1
:1007B000AB4218D10E6816F4702F14D0A66A46F416
:1007C0008016A6620E68760505D5A66A26F4005640
:1007D00046F48056A662A66AF6040AD5E66A26F0B2
:1007E0000606E66206E0A66A26F48016A6625E6841
:1007F000E9E7E06284F824006FF0020018602068E6
:100800008368C3F34243072B05D1A84208D1096886
:1008100011F4702F04D0816841F480118160B9E730
:10082000816841F4A001F9E7002801400424014057
:10083000014801F0BBBA000020000020044910B5B7
:100840000A68024202D00860FFF7F2FF10BD000004
:10085000140401402DE9F84FDFF8C891002409F194
:10086000040A0AF1040B23460F270BF1040ED1E012
:100870000125A54006EA0502AA4276D1DFF8A8C103
:100880004E68A6EB0C0866452BD00DDC032E34D049
:1008900005DC36B3012E19D0022E2FD11BE0112E0C
:1008A00016D0122E2AD119E0B8F5881F19D006DC0F
:1008B000B8F5803F15D0B8F5801F1FD111E0B8F50D
:1008C000001F0ED0B8F5041F18D10AE0CB6815E060
:1008D000CB681B1D12E0CB6808330FE0CB680C33EC
:1008E0000CE08B682BB1012B4FF0080303D045615E
:1008F00004E0042302E0056100E00023FF2A01D8A0
:10090000064601E000F104064FEA840501D9A5F18D
:100910002005D6F8008007FA05FC28EA0C0803FA3F
:1009200005F548EA0508C6F800804D68ED0070D569
:100930003E4DAE6946F00106AE61AD6924F0030696
:1009400005F0010500953A4D06EB050CDCF8085062
:10095000A607360F07FA06F825EA0805DFF8D4805F
:10096000404503D14FF0000825E052E0DFF8C88091
:10097000404502D14FF001081DE0DFF8C08040453E
:1009800002D14FF0020816E0DFF8B480404502D1F2
:100990004FF003080FE0DFF8AC80404502D14FF084
:1009A000040808E0DFF8A080404502D14FF00508B8
:1009B00001E04FF0060808FA06F848EA0508CCF806
:1009C00008804D68D9F80060ED034D4601D5164307
:1009D00000E096432E604D68DAF80060AD0355469E
:1009E00001D5164300E096432E604D68DBF80060A9
:1009F000ED025D4601D5164300E096432E604D683A
:100A0000DEF80060AD02754601D5164300E096435E
:100A10002E60641C0A681646E2407FF429AFBDE8E8
:100A2000F88F000000040140000011100010024087
:100A30000000014000080140000C0140001001408E
:100A40000014014000180140001C01400AB101617E
:100A500070470904FBE70000014880687047000008
:100A600004000020024881680278114481607047C8
:100A700004000020074810B5016841F01001016032
:100A8000032000F075F80F2000F006F800F024F8BD
:100A9000002010BD0020024070B50D4D04464FF4FB
:100AA0007A712878B1FBF0F00A490968B1FBF0F0DF
:100AB00000F0BCFB48B9102C07D200222146501E82
:100AC00000F036F800206C6070BD012070BD0000A1
:100AD00004000020100000200C4808B5816941F096
:100AE00001018161816901F001010091C16941F059
:100AF0008051C161C06900F0805000900448416895
:100B000021F0E06141F00071416008BD0010024039
:100B100000000140002809DB00F01F020121914084
:100B20004009800000F1E020C0F80011704700008B
:100B3000F0B40E4B1B680C46C3F30223C3F1070548
:100B4000042D00D90425191D072901D2002300E036
:100B5000DB1E012606FA05F1491E214099409E4000
:100B6000761E16403143F0BC01F0BEB80CED00E03B
:100B7000064900F0070208684FF6FF03184040EAF4
:100B80000220034A10430860704700000CED00E0AB
:100B90000000FA0510B52CA401461DCC86B08DE8E6
:100BA0001D002DA02D4C00680490002004292FD09A
:100BB0000BDC01292FD0022928D100F061F96168EE
:100BC000C1F38131491C49001EE0082920D01029B9
:100BD0001CD161682268D20118D5C1F38342C903D0
:100BE0001DF8020009D5616804AAC1F34041515CB7
:100BF0001B4AB2FBF1F1484301E01A4948436168DE
:100C0000490203D440000321B0FBF1F006B010BD4F
:100C100000F046F9FAE7226AC2F30121012903D163
:100C2000920701D5C803F1E7022905D1626A92074C
:100C300002D549F64040E9E70329E7D12168890355
:100C4000E4D54FF22440E1E7020304050607080952
:100C50000A0B0C0D0E0F10100102000000100240D4
:100C600000127A0000093D002DE9F843054600789E
:100C7000354CC00754D0E0690026C00008D4E069B4
:100C800040F08050E061E069012600F08050009063
:100C90002E480168C90512D40168804641F480716C
:100CA0000160FFF7D9FE074605E000BFFFF7D4FE5D
:100CB000C01B642823D8D8F80000C005F6D5206AE8
:100CC00010F4407021D0A98801F4407181421CD0F9
:100CD000206A1F49012220F440700A6000220A6045
:100CE0002062C00711D0FFF7B7FE074641F28838EF
:100CF00008E000BFFFF7B0FEC11B414502D9032049
:100D0000BDE8F883206A8007F4D5206A696820F47A
:100D10004070084320621EB1E06920F08050E0611D
:100D20002878800705D56068A96820F4404008430A
:100D300060602878C00605D56068696920F4800085
:100D4000084360600020DBE70010024000700040B4
:100D5000400442422DE9F0470F46050061D0434E62
:100D6000306800F00700B84209D2306820F0070070
:100D700038433060306800F00700B84251D128682D
:100D80003B4C810712D5400703D5606840F4E06012
:100D900060602878000703D5606840F460506060A8
:100DA0006068A96820F0F000084360602878C007F8
:100DB00028D06868012810D02168022810D089073F
:100DC00000292EDA616821F0030101436160FFF719
:100DD00043FE804641F288390DE021688903EFE740
:100DE0008901EDE7FFF738FEA0EB0801494502D97C
:100DF0000320BDE8F0876068696800F00C00B0EB84
:100E0000810FEFD1306800F00700B8420BD930688D
:100E100020F0070038433060306800F00700B84227
:100E200001D00120E5E72878400705D56068E9682A
:100E300020F4E060084360602878000706D5606809
:100E4000296920F4605040EAC100606000F028F891
:100E50006168084AC1F30311515CC8400649086043
:100E600006480068FFF718FE0020C2E70020024095
:100E700000100240F41F00081000002008000020AD
:100E80000448054900684968044AC1F3C221515C1D
:100E9000C8407047100000200010024004200008E5
:100EA00012A185B00FC98DE80F0014A0144A006884
:100EB00004905168134801F00C03042B10D0082B48
:100EC0000ED1C1F38343C9031DF803000AD551684D
:100ED00004AAC1F34041515C0A4A5043B0FBF1F00F
:100EE00005B0704708494843FAE7000002030405CB
:100EF000060708090A0B0C0D0E0F10100102000066
:100F00000010024000127A0000093D002DE9F84F60
:100F1000040070D02078C04DC00749D06868C0F385
:100F20008100012807D06868C0F38100022809D138
:100F30006868C00306D52868800339D56068002832
:100F4000E7D035E06068B0F5803F0BD010B1B0F568
:100F5000A02F11D0286820F480302860286820F461
:100F6000802002E0286840F480302860606890B1FA
:100F7000FFF772FD06460AE0286840F480202860EA
:100F8000F0E700BFFFF768FD801B642873D828686E
:100F90008003F7D50CE0FFF75FFD064605E000BFD4
:100FA000FFF75AFD801B6428F0D828688003F7D427
:100FB00020789A4E80074FF001094FF0000839D58C
:100FC000686810F00C0F07D06868C0F38100022831
:100FD00009D16868C00306D42868800714D5206941
:100FE000012808D110E02069B0B1C6F80090FFF7E1
:100FF00033FD074605E00AE1FFF72EFDC01B02287E
:10100000C4D828688007F7D52868616920F0F800FF
:1010100040EAC10028600DE0C6F80080FFF71CFD23
:10102000074604E0FFF718FDC01B022823D82868F4
:101030008007F7D4207800072CD57948A169D9B169
:10104000C0F80090FFF708FD074604E0FFF704FD35
:10105000C01B02280FD8686A8007F7D571484FF483
:10106000FA510068B0FBF1F0009000BF0098411EFB
:101070000091FAD20EE080E0C0F80080FFF7ECFCAF
:10108000074604E0FFF7E8FCC01B022875D8686A31
:101090008007F7D42078400760D5E8690027C000B2
:1010A00008D4E86940F08050E861E869012700F061
:1010B000805000905C480168C90513D401688346DC
:1010C00041F480710160FFF7C7FC824606E000BF73
:1010D000FFF7C2FCA0EB0A0064284ED8DBF8000042
:1010E000C005F5D5E06801280AD008B1052813D05D
:1010F000286A20F001002862286A20F0040002E03B
:10110000286A40F001002862E06841F2883B98B10B
:10111000FFF7A2FC82460BE0286A40F00400286238
:10112000EEE700BFFFF798FCA0EB0A0159455AD83B
:10113000286A8007F6D50CE0FFF78EFC824605E0B2
:10114000FFF78AFCA0EB0A0159454CD8286A8007B2
:10115000F6D41FB1E86920F08050E861E06988B3F7
:101160006968C1F38101022944D00228C6F8608071
:1011700004D0FFF771FC044638E034E0FFF76CFC64
:10118000074604E0FFF768FCC01B02282BD828683C
:101190008001F7D4206AB0F5803F05D16868A16866
:1011A00020F4003008436860D4E908010843696806
:1011B00021F4741108436860C6F86090FFF74CFC96
:1011C000044606E025E000BFFFF746FC001B0228AE
:1011D00009D828688001F7D51BE000BFFFF73CFC69
:1011E000001B022802D90320BDE8F88F286880017F
:1011F000F4D40EE00128F7D06868226A00F4803148
:10120000914204D1616A00F47010884201D001203B
:10121000EAE70020E8E70000001002400000424238
:1012200080044242100000200070004010B5401EB3
:10123000B0F1807F01D3012010BD4FF0E024606148
:101240000F21601700F050FD0020A06107202061F1
:10125000002010BD7047704770B590F83C20012AFF
:101260002CD0012480F83C40022280F83D20036805
:101270005A689D6822F070060A6832435A60104B23
:1012800002689A420ED00F4B9A420BD0B2F1804FB7
:1012900008D00D4B9A4205D00C4B9A4202D00C4B11
:1012A0009A4204D1496825F080031943916080F87F
:1012B0003D40002180F83C10084670BD022070BD02
:1012C000002C0140003401400004004000080040B0
:1012D000000C004010B5040003D094F83D0010B19C
:1012E00007E0012010BD002084F83C00204600F0FB
:1012F0001FF8022084F83D00211D206800F0A8FBA3
:10130000012084F8460084F83E0084F83F0084F809
:10131000400084F8410084F8420084F8430084F8D7
:10132000440084F8450084F83D00002010BD000012
:1013300008B500680B49884212D10B48C16941F0D9
:101340000201C161C069002200F0020000900F217B
:101350001D20FFF7EDFBBDE808401D20FFF7DABBBD
:1013600008BD0000000400400010024090F83D104D
:10137000012901D001207047022180F83D10016849
:10138000CA6842F00102CA6000680E4988420ED065
:101390000D4988420BD0B0F1804F08D00B498842EC
:1013A00005D00B49884202D00A49884204D181689D
:1013B00001F00701062903D0016841F00101016035
:1013C00000207047002C0140003401400004004020
:1013D00000080040000C004070B5044690F83C0046
:1013E000012817D0012584F83C50022084F83D00E4
:1013F0002068826822F0770222F47F4282600868C7
:10140000502830D00DDC20284DD005DC98B31028B2
:101410003BD148E0022070BD302844D0402834D170
:1014200039E0602828D0702806D0B0F5805F2CD035
:10143000B0F5005F29D10AE0CB68D1E9012120682D
:1014400000F059FB2068816841F0770109E0CB6822
:10145000D1E90121206800F04EFB2068816841F449
:101460008041816011E0CA684968206800F018FC7A
:101470005021206807E016E0CA684968206800F03B
:1014800020FC6021206800F040FB84F83D500020E3
:1014900084F83C0070BDCA684968206800F000FC10
:1014A00040212068EFE7226801461046EBE77047CD
:1014B00070B50446006801694FF00005C94389070B
:1014C00015D4C168C943890711D4E91E01610120FF
:1014D0002077206880698007204602D0FFF7E7FF69
:1014E00004E000F0BFF8204600F04EF925772068B0
:1014F0000169C943490717D4C168C943490713D4CF
:101500006FF004010161022020772068806910F4E7
:10151000407F204602D0FFF7CAFF04E000F0A2F8A7
:10152000204600F031F9257720680169C943090791
:1015300016D4C168C943090712D46FF008010161CC
:10154000042020772068C0698007204602D0FFF77A
:10155000AEFF04E000F086F8204600F015F925778C
:1015600020680169C943C90617D4C168C943C906BF
:1015700013D46FF010010161082020772068C06942
:1015800010F4407F204602D0FFF791FF04E000F006
:1015900069F8204600F0F8F8257720680169C9430A
:1015A000C90708D1C168C943C90704D1891E0161AF
:1015B000204600F045F920680169C943090609D4AD
:1015C000C168C943090605D46FF080010161204656
:1015D000FFF740FE20680169C943490609D4C16884
:1015E000C943490605D46FF040010161204600F06F
:1015F00028F920680169C94389060BD4C168C94329
:10160000890607D46FF0200101612046BDE87040D3
:10161000FFF721BE70BD000000B585B0002100912C
:1016200001910291039100680B49884211D10B4846
:10163000816941F0040181618069694600F004001C
:101640000490402000900220019003900448FFF78E
:1016500001F905B000BD0000000400400010024088
:1016600000080140704770B5044690F83C000D46F4
:1016700001280AD0012084F83C0042B1042A18D085
:10168000082A2AD00C2A4DD139E0022070BD2068EA
:1016900000F044FA2068816941F008018161206806
:1016A000816921F004018161206881692A691143FF
:1016B00011E0206800F062FA2068816941F400615D
:1016C00081612068816921F480618161206881697C
:1016D0002A6941EA0221816124E0206800F084FA4D
:1016E0002068C16941F00801C1612068C16921F029
:1016F0000401C1612068C1692A69114311E02068B1
:1017000000F0A6FA2068C16941F40061C161206857
:10171000C16921F48061C1612068C1692A6941EA17
:101720000221C161002084F83C0070BD10B50400A6
:1017300003D094F83D0010B107E0012010BD002057
:1017400084F83C00204600F01EF8022084F83D009A
:10175000211D206800F07CF9012084F8460084F8FF
:101760003E0084F83F0084F8400084F8410084F88B
:10177000420084F8430084F8440084F8450084F86B
:101780003D00002010BD70477047000010B50446B2
:10179000022249B104290ED0082913D094F841003F
:1017A000012816D0012010BD94F83E000128F9D17F
:1017B00084F83E200FE094F83F000128F2D184F82D
:1017C0003F2008E094F840000128EBD184F8402045
:1017D00001E084F841200122206800F07FF91349DC
:1017E0002068134A884201D0904203D1436C43F4ED
:1017F00000434364206888420DD090420BD0B0F182
:10180000804F08D00B49884205D00B49884202D04E
:101810000A49884204D1816801F00701062903D0F2
:10182000016841F001010160002010BD002C014061
:10183000003401400004004000080040000C00405B
:1018400070477047FEE700003EB500241148009441
:10185000019402940E4984600160047304750125AB
:1018600005614FF460214460C161FEF727FE08B1B5
:10187000FEF79FFD0420CDE9000569460294054866
:10188000FEF79AFD002801D0FEF793FD3EBD000053
:1018900000240140F427002070B586B000241C48C5
:1018A0000094019402940394816941F040018161A4
:1018B000816901F040010491816941F00401816175
:1018C0008069144E00F0040004900022A0213046EC
:1018D000FFF7BCF8102000900F480125CDE9010565
:1018E00069460E48FEF7B6FFA020CDE900050220AC
:1018F000CDE9024069463046FEF7ACFF00221146B2
:101900000A20FFF715F90A20FFF704F906B070BDA9
:1019100000100240000801400000111000180140B2
:1019200010B58EB000240794089409940A940B947F
:101930001C2168460C94FEF769FC1F481D49016094
:101940001121C0E901140321C0E903148461FFF7E8
:10195000C1FC08B1FEF72DFD4FF48050079007A998
:101960001548FFF739FD08B1FEF723FD1248FFF7D0
:10197000DDFE08B1FEF71DFD0B940BA90E480C947B
:10198000FFF76AFC08B1FEF714FD6020009001200B
:10199000CDE9010404200490002269460648FFF7BF
:1019A00062FE08B1FEF705FD0348FFF735FE0EB0F5
:1019B00010BD00000004004024280020FEE7FEE7E0
:1019C00070477047FFF74EB830B595B0282168468C
:1019D000FEF71CFC14210AA8FEF718FC18210FA81A
:1019E000FEF714FC01210804CDE900100025029542
:1019F00002240491CDE907404FF4E01009906846B5
:101A0000FFF784FA08B172B6FEE70AA90F2081E851
:101A100031004FF48060CDE90D0502210AA8FFF7DF
:101A200099F908B172B6FEE74FF4404011900F9457
:101A30000FA8FFF719F9002801D072B6FEE715B01C
:101A400030BD70470148FFF733BD00002428002057
:101A5000F0B502681C4B1D4D1D4E1E4F1E4C4FF025
:101A6000804C984209D0A04207D0604505D0A842DA
:101A700003D0B04201D0B84204D122F0700E4A68BF
:101A800042EA0E02984209D0A04207D0604505D034
:101A9000A84203D0B04201D0B84203D122F440752D
:101AA000CA682A434D6922F080022A4302608A688C
:101AB000C2620A688262984201D0A04201D10969DB
:101AC000016301214161F0BD002C01400004004090
:101AD00000080040000C00400034014010B501F047
:101AE0001F030121046A99408C430462016A9A40F1
:101AF0001143016210BD10B5846842EA032224F448
:101B00007F440A432243826010BD826822F0700243
:101B10000A4342F00701816070470000F0B5026A95
:101B200022F001020262036A42688469124E24F0C4
:101B300073050C682C4323F002058B682B430D4D75
:101B4000A84201D0B04205D123F00807CB683B433F
:101B500023F00403A84201D0B04205D14D6922F41C
:101B6000407215438A692A4342608461496841632F
:101B70000362F0BD002C014000340140F0B5026A60
:101B800022F010020262026A436884690D6824F43C
:101B9000E64444EA05248D6822F0200242EA051258
:101BA0000F4D104EA84201D0B04206D1CF6822F0AE
:101BB000800242EA071222F04002A84201D0B0425D
:101BC00007D14D6923F4406343EA85038D6943EAF5
:101BD000850343608461496881630262F0BD00004F
:101BE000002C014000340140F0B5026A22F48072FA
:101BF0000262026A4368C46922F4007224F0730529
:101C00000C68124E2C438D6842EA05220E4DA84204
:101C100001D0B04206D1CF6822F4006242EA072226
:101C200022F48062A84201D0B04207D14D6923F46A
:101C3000405343EA05138D6943EA05134360C461C9
:101C40004968C1630262F0BD002C014000340140CC
:101C500030B5026A22F480520262046A4268C369A3
:101C60000D6823F4E64343EA05238D6824F4005409
:101C700044EA0534084DA84202D0084DA84204D1D8
:101C80004D6922F4804242EA85124260C36149688C
:101C90000164046230BD0000002C014000340140AA
:101CA00010B5036A046A24F001040462846924F014
:101CB000F00444EA021423F00A020A438461026237
:101CC00010BD10B5036A23F0100303628369046A30
:101CD00023F4704343EA023224F0A00343EA0111E3
:101CE0008261016210BDFEE70907090E002804DBCE
:101CF00000F1E02080F80014704700F00F0000F1C0
:101D0000E02080F8141D704710B50D4A04460120EC
:101D1000C2E900100020906011462046FEF74CFBFF
:101D200008B1FEF746FB2046FEF722FD0A212046B9
:101D3000FEF780FC2046FEF7BDFB80B210BD000020
:101D40001400002070B500252C4611210848FFF72B
:101D5000DBFF6D1CEDB20444C82DF6D3204600F025
:101D6000EBF8BDE870400146024800F023B80000DF
:101D7000F427002001007043FEF77CFEFFF724FEED
:101D8000FFF78AFDFFF7CCFDFFF75EFDFFF7DAFFF7
:101D9000044908600448FFF7E9FA00210248FFF708
:101DA000F5FCFEE70000002024280020002101703F
:101DB000704700004FF47F0C1CEAD0121EBF1CEAD3
:101DC000D11392EA0C0F93EA0C0F00F0858090EA91
:101DD000010F48BF42F4807240F4000C41F400004F
:101DE0002CF07F4120F07F4000B58142A2EB03023E
:101DF0000FF2081CACEB504EC0F100009EF800E062
:101E00004FEA4E0E00FB0EFC38BF49004FEA2C1C77
:101E100002F5FA020CFB0EF34FEACE1E4FEA112C2C
:101E20004FEAC1210EEB635E42EB22420EFB0CFC3B
:101E30004FEA1C5300FB03114FEA112C4FEA01310A
:101E40000EFB0CFC4FEADC4C00FB0C11C14228BF1E
:101E500009184CEB03335DF804EB10EB410143EB45
:101E6000C250B2F57C0F38BF704729D512F0F00F81
:101E70001CBF00F1C04000F0004070470081828329
:101E80008485868788898B8C8D8E8F919293959689
:101E900097999A9C9D9FA0A2A3A5A7A8AAACAEB013
:101EA000B2B3B5B7B9BCBEC0C2C5C7C9CCCED1D418
:101EB000D7D9DCDFE2E6E9ECF0F3F7FAFE00000048
:101EC0004FEA400C0CF1807CBCF17E4F28BF70477C
:101ED000B0F1C04000F089B890EA010F0CEAD113CC
:101EE00048BF42F48072624538BF634507D213F49D
:101EF0007F0F16D080EA010000F00040704710B557
:101F000000F02DF8097EFC3E00F005B880EA0100E3
:101F100000F00040704780EA010000F0004000F04F
:101F200064B812F47F0F04BF0248704780EA0100D2
:101F300000F05BB80000C07FB0FA80F310FA03F243
:101F4000C3F19D030AD0D90501EB1220530638BF17
:101F5000704700F1010008BF20F0010070470EF14A
:101F6000020E2EF0030E5EF8044B244204D44FEA16
:101F70004102B2F17F4F11D84FEA4003B3F17F4FD6
:101F80000CD80ED14FEAD07CB2F17F4F0CEB4C0C49
:101F90000CF1020C08BF4CEBD17C04E04FF0080CB4
:101FA00001E04FEAD17C0CEB4C0324FA03F404F07B
:101FB0000704B4F1040C06D20EEB840CBDE810400B
:101FC0004CF0010C6047DFE80CF0070802024FF00C
:101FD0000040A0F5800010BD0846420018BFD2F1B5
:101FE000807288BF00F0004010BDFF2141EAD05050
:101FF000C00570470000000000000000010203045B
:102000000607080900000000010203042C20000854
:1020100000000020140000006C01000840200008AF
:1020200014000020BC2E0000880100080000000001
:102030000100000010000000000000000024F40077
:0400000508000131BD
:00000001FF
